:200000000C94450A0C94620A0C94620A0C94620A0C94620A0C94620A0C94620A0C94620A9D
:200020000C94620A0C94620A0C94620A0C94620A0C94F3500C94620A0C94620A0C94B34FF3
:200040000C94CE510C94620A0C94620A0C94620A0C94620A0C94620A0C943E500C94620A6B
:200060000C94620A0C944F510C94A3500C9472500C94620A0C94620A0C94620A0C94620A0F
:200080000C94620A0C94620A0C94620AF70FFB0F1910581075107B10CE109610B210F7103E
:2000A000F31007111C11301134114C115D118511A611B911454550524F4D000102030401BD
:2000C000030204040203010403020142616420454570726F6D204461746100466F726D6105
:2000E0007474696E6720454550524F4D00414C41524D5300416C61726D73204469736162CF
:200100006C65640047560043757276650057656967687400120800081C0808081C08000026
:20012000082200490022080000000000227F2200000008220049002208000008220049004F
:200140002208000000227F220000000000082200490022080000081C0808081C0800B20FF4
:20016000251F61219814A4128521464C4947485420504841534553002864656661756C7402
:20018000290006436865636B0A5472696D730000FF000000FF0000000000FF0000FF00003D
:2001A0000000FF01524144494F20534554555000536F756E6400014D6F646500014C656E70
:2001C00067746800436F6E747261737400416C61726D73000142617474657279204C6F7700
:2001E00000014D656D6F7279204C6F770001536F756E64204F66660001496E61637469761F
:200200006974790054696D6572206576656E747300546872207265766572736500014D69D1
:200220006E7574650001436F756E74646F776E004261636B6C696768740001416C61726DC9
:2002400000014475726174696F6E005278204368616E6E656C204F7264005B4D454E555D82
:20026000085B455849545D000000000101000400494E53455254204D495820004544495455
:20028000204D4958200001536F7572636500014F6666736574005472696D00445265780047
:2002A00044696666005761726E696E67004F4646004D756C7470780044656C6179205570B6
:2002C0000044656C617920446E00536C6F772020557000536C6F772020446E000003435581
:2002E00053544F4D2046554E4354494F4E53005448524F54544C45005468726F74746C6516
:20030000206E6F742069646C650008507265737320616E79204B6579001B20FC04040404A1
:20032000040484C48404E4F4E40484C4C40404040404040404FCFF000000FCFE00FFFFFF07
:2003400080FFFFFF80FFFFFF0000008080800000FFFF000000FFFFFFFFFFFFFFFFFFFFFF30
:20036000FFFFFFF8FCFF3F0F030000FF3F2020202127272F2F2F2B272F2F2F2F2F2F2723EC
:200380002020202020203F5741524E494E470044494147005472696D2D202B0053544154E3
:2003A0005300544D311A544D32005448521A54482500544F540046500043555256455300FD
:2003C000435600414E415300410042473A00426174746572792043616C6962000000010482
:2003E000004578706F004E2F4100536964650063004D4F44454C000004040404040404042A
:200400000404040404040404004F555450555453005472696D73203D3E204F666673657447
:200420007300496E76657274205468723F00000202020200545241494E455200536C617691
:2004400065004D6F6465062520536F75726365004D756C7469706C6965720043616C0000BF
:2004600002435553544F4D2053574954434845530050504D0043480056455253494F4E0077
:200480002053564E3A20436F6D626174397800444154453A20323031322D31322D31390080
:2004A00054494D453A2032313A35353A333300454550523A203231322D310043414C494238
:2004C000524154494F4E00065B4D454E555D20544F20535441525400534554204D494450B5
:2004E0004F494E5400065B4D454E555D205748454E20444F4E45004D4F56452053544943AD
:200500004B532F504F545300507265737320616E79206B657920746F20736B697000535469
:2005200049434B5300435552564500547970650070742700707400783D00793D004D495822
:200540004552002F3134002F333200454550524F4D206C6F77206D656D0053574954434871
:200560000050686173650000000000000000006F0000070007001830180C06087F7F7F080E
:20058000231308646236495522500005030000001C2241000041221C0014083E0814080885
:2005A0003E08080050300000000808080800606000002010080402003E41413E0000427F90
:2005C0004000625149460041494936001814127F0027454539003E49493200017905030065
:2005E00036494936000649291E000036360000005636000008142241141414141441221415
:200600000800020151090606090906007E0909097E7F494949363E414141227F4141221C48
:200620007F494949417F090909013E4149497A7F0808087F00417F41002040413F017F087A
:200640001422417F404040407F020C027F7F0408107F3E4141413E7F090909063E415121AC
:200660005E7F09192946264949493201017F01013F4040403F1F2040201F3F4030403F63C9
:200680001408146307087008076151494543007F41410002040810200041417F000402016F
:2006A00002044040404040000102040020545454787F484444383844444420384444487F27
:2006C0003854545418087E0901020C5252523E7F0804047800447D40002040443D007F1084
:2006E00028440000417F40007C041804787C0804047838444444387C141414080814141832
:200700007C7C080404084854545420043F4440203C4040207C1C2040201C3C4020403C4412
:20072000281028440C5050503C4464544C44000836410000007F00000041360800080822A2
:200740001C08081C220808000000000000000000000000000000000000000000000000001F
:20076000000000FE71FE710000000000000000000000003E007E00000000007E003E000023
:2007800000000060066006FE7FFE7F60066006FE7FFE7F600660066018F01898199819FE21
:2007A0007FFE7F98199819180F18060C181E1C1E0E0C078003C001E030707838781830784D
:2007C0001EFC3F8E71C663E66776663C3C183C0066006600000000660076003E001E00009F
:2007E0000000000000000000000000E007F00F381C1C380E70066000000000000000000681
:20080000600E701C38381CF00FE0070000000060066006C0038001F81FF81F8001C003608A
:200820000660068001800180018001F81FF81F80018001800180010000000000660076003A
:200840003E001E000000000000000000000000800180018001800180018001800180010034
:20086000000000003000780078003000000000000000000018001C000E00078003C001E0BB
:200880000070003800180000000000F81FFC3F0E70066006600E70FC3FF81F000000001814
:2008A000601C60FE7FFE7F00600060000000000000000018781C7C0E6E06678663CE61FC7D
:2008C0006078600000000006600660866186618661CE73FC3F781E000000008007C007E01F
:2008E00006700638061C06FE7FFE7F000000007E187E38667066606660E670C63F861F0074
:20090000000000F81FFC3F8E71866186618E731C3F181E0000000006000600867FC67FE6EA
:200920000076003E001E0000000000781EFC3FCE7386618661CE73FC3F781E00000000787B
:2009400000FC00CE6186718639CE1DFC0FF80700000000300C781E781E300C00000000001D
:200960000000000000000030667876783E301E0000000000000000000000008001C003E0CB
:2009800007700E381C1C380E70066060066006600660066006600660066006600660060644
:2009A000600E701C38381C700EE007C00380010000000018001C000E000600066606678661
:2009C00003CE01FC0078007800FC00CE0186018601CE01FC00780000000000E07FF07FB8B7
:2009E000019C018E018E019C01B801F07FE07FFE7FFE7F86618661866186618661CE73FC5D
:200A00003F781EF81FFC3F0E7006600660066006600E701C381818FE7FFE7F0660066006CB
:200A2000600E701C38381CF00FE007FE7FFE7F86618661866186618661866106600660FE1C
:200A40007FFE7F86018601860186018601860106000600F81FFC3F0E7006608661866186DA
:200A6000618E719C7F983FFE7FFE7F800180018001800180018001FE7FFE7F000000000624
:200A8000600660FE7FFE7F0660066000000000001800380070006006600670FE3FFE1F066E
:200AA000000600FE7FFE7F8001C003E007700E381C1C380E700660FE7FFE7F006000600047
:200AC0006000600060006000600060FE7FFE7F1C003800F001F00138001C00FE7FFE7FFE5A
:200AE0007FFE7F7000E000C00180030007000EFE7FFE7FF81FFC3F0E70066006600660064F
:200B0000600E70FC3FF81FFE7FFE7F86018601860186018601CE01FC007800F81FFC3F0E65
:200B20007006600666066E063C0E38FC7FF867FE7FFE7F860186018607860F861DCE39FCCD
:200B40007078607818FC38CE7186618661866186618E731C3F181E0600060006000600FE06
:200B60007FFE7F0600060006000600FE1FFE3F007000600060006000600070FE3FFE1FFE4F
:200B800007FE0F001C0038007000700038001CFE0FFE07FE1FFE3F00700070003E003E00F1
:200BA000700070FE3FFE1F1E783E7C700EE007C003C003E007700E3E7C1E787E00FE00C0CF
:200BC000018003007F007F8003C001FE007E000678067C066E06678663C661E66076603E88
:200BE000601E6000000000FE7FFE7F066006600660066000000000180038007000E000C025
:200C00000180030007000E001C0018000000000660066006600660FE7FFE7F000000006015
:200C200000700038001C000E000E001C003800700060000060006000600060006000600070
:200C4000600060006000600000000006000E001C00380070006000000000000018003C6028
:200C60007E6066606660666066E066C07F807FFE7FFE7F8061C061E06060606060E070C08E
:200C80003F801F801FC03FE0706060606060606060607000380018801FC03FE0706060605A
:200CA00060E060C0618061FE7FFE7F801FC03FE0766066606660666066E066C00780078078
:200CC000018001F87FFC7F8E01860106000E001C001800E001F0033867186618661866183D
:200CE000661876F83FF81FFE7FFE7F8001C001E00060006000E000C07F807F000000006058
:200D0000606060E67FE67F0060006000000000001800380070006060606070E63FE61F004F
:200D2000000000FE7FFE7F0006000F801FC039E0706060000000000000000006600660FE32
:200D40007FFE7F0060006000000000E07FE07F6000E000C007C007E000E000C07F807FE06D
:200D60007FE07F8001C001E00060006000E000C07F807F801FC03FE0706060606060606007
:200D800060E070C03F801FE07FE07F60066006600660066006E007C00380018001C003E0FA
:200DA00007600660066006C0078007E07FE07FE07FE07F8001C001E00060006000E000C0AE
:200DC0000180018061C063E0676066606660666066607E003C001860006000FE1FFE3F6082
:200DE0007060600060007000380018E01FE03F007000600060007000380018E07FE07FE0F7
:200E000007E00F001C0038007000700038001CE00FE007E01FE03F00700070003800380010
:200E2000700070E03FE01F6060E070C039801F000F000F801FC039E0706060E001E0030082
:200E40006700660066006600660076E03FE01F606060706078607C606E6067E063E061E0C2
:200E6000606060000000008001C003781E7C3E0E700660000000000000000000000000FEDC
:200E80007FFE7F00000000000000000000000006600E707C3E781EC003800100000000805E
:200EA000018001800180011818381CF00FE007C00380018001C003E007F00F381C181880D2
:200EC000018001800180014E6F2066726565206578706F21004E6F2066726565206D697825
:200EE000657221000301020004050607546D72314C6174206D617806757300034F46464FD8
:200F00004E00032D2D2D494E56040134434801364348013843483130434831324348313483
:200F2000434831364348055175696574416C61726D4E6F4B6579416C6C2020034F464620FD
:200F40002B3D203A3D03434831434832434833434834064578706F2020457846696E654632
:200F6000696E6520204D656469756D436F6172736501524554413132330650504D00202041
:200F800050504D31360050504D73696D5B5058585D005B44534D325D03504F534E4547046E
:200FA0004F4646204B65797353746B73426F74684F4E00032D2D2D783E30783C307C787C07
:200FC000663E30663C307C667C434F5353494E41435341534E524E47425441425456084192
:200FE000646420202020204D756C7469706C795265706C61636520022B3D2A3D3A3D034FB3
:2010000046464F4E00527564456C6554687241696C082D2D2D0020202020763E6F66730017
:201020002020763C6F66730020207C767C3E6F6673007C767C3C6F667300414E440020203D
:2010400020204F52002020202020584F52002020202076313D3D763200207631213D763200
:20106000002076313E763200202076313C763200202076313E3D7632002076313C3D763206
:201080000020643E3D6F667300207C647C3E3D6F66730B536166657479002020202054720D
:2010A00061696E657220002020496E73742E205472696D0042656570002020202020205BA2
:2010C0004861707469635D00202052657365740020202020205B566172696F5D002020205E
:2010E0005B506C6179547261636B5D5B506C617956616C75655D4261636B6C6967687400D9
:201100002041646A75737420002020200654696D65723154696D657232416C6C202020548C
:20112000656C656D2E064265657031204265657032204265657033205761726E31205761CD
:20114000726E322043686565702052696E672020536369466920526F626F742043686972EE
:201160007020546164612020437269636B74536972656E20416C6D436C6B52617461746113
:201180005469636B2020042D2D2D00546D7231546D72325478002052780020413100204187
:2011A000320020416C740052706D004675656C5431002054320020537064004469737447B4
:2011C000416C7443656C6C43656C735666617343757272436E7370506F77724163635841DF
:2011E0006363594163635A486467005653706441312D0041322D00416C742D416C742B52B4
:20120000706D2B54312B0054322B005370642B4473742B4375722B4163630054696D6505CD
:20122000204D656E75204578697420446F776E20202055705269676874204C656674035462
:201240004852525544454C4549443049443149443241494C47454154524E435331435332D3
:20126000435333435334435335435336435337435338435339435341435342435343204FE3
:201280004E0452756400456C65005468720041696C005031002050320020503300205472CB
:2012A0006D5254726D4554726D5454726D414D41582033504F535B43315D5B43325D5B43DA
:2012C000335D034F4646414253544873544825544874000089020200000000000000060156
:2012E0000253455455500054696D657200452E4C696D69747300452E5472696D730054722D
:20130000696D205374657000542D547261636500542D5472696D00542D5761726E696E6757
:2013200000532D5761726E696E67004374722042656570000150726F746F0050504D20660A
:2013400072616D65006D73004E616D6500476C6F62616C205661726961626C65005B085D30
:2013600000444542554700546D72314C6174206D696E06757300546D7231204A69747465AB
:201380007206757300546D6978206D61780C6D73004672656520537461636B0862005B4D4F
:2013A000454E555D20746F20726573657400454550524F4D206F766572666C6F7700408086
:2013C000080420100201537769746368000101020A3C01010414500101081E6402020F28E1
:2013E0007805051E3296124B4C38650E25292A29301C15124720C10C4D4F44454C53454C94
:201400000044454C455445204D4F44454C00436F7079696E67206D6F64656C2E2E2E004DA7
:201420006F76696E67206D6F64656C2E2E2E004C6F6164696E67206D6F64656C2E2E2E0055
:20144000667265650085000300464C49474854205048415345005472696D73004661646594
:2014600020496E0046616465204F7574005F2D2E2C001B1E272D36394B4E636C7278878D85
:20148000939CB1B4C6C9D2D8E1E411241FBECFEFD0E1DEBFCDBF11E0A0E0B1E0E0E1FBEC66
:2014A00002C005900D92A039B107D9F71DE0A0E9B1E001C01D92A438B107E1F70E94DA5A0C
:2014C0000C9486650C9400007F928F929F92AF92BF92CF92DF92EF92FF920F931F93CF9352
:2014E000DF93D82E80914C07882319F080E792E002C08CE792E00E94522C8091AA0C0E9453
:20150000EF57EC0180914E0748814F70475E8A5F60E020E00E94411A8D2D60E040E050E095
:2015200020E008E612E037E0E32E7CE0C72E0E94E61A882309F417C27090B50CB090B30C6F
:2015400028E0F22E99248091AF0C890D781621F41B1424F413E003C010E001C012E086304B
:2015600009F464C1873094F4823009F450C0833034F4882309F1813009F0EEC137C08430C7
:2015800009F4D7C085300CF042C152C0893009F4A8C18A303CF4873009F456C1883009F06C
:2015A000DBC184C18B3009F4BAC18B300CF4A6C18C3009F0D1C1C0C18F2D67E872E00E942E
:2015C0004B2C4C814F7382E46F2D212F0E94651A112309F4C1C16C816F738D2D41E02DE325
:2015E0000E942D3E8F739C81907C5DC18F2D6DE071E00E944B2C106882E46F2D498123E8D3
:201600000DE7E12ECD2C0E94F6178983A5C18F2D6FE872E00E944B2C106882E46F2D4885E8
:2016200023E80DE7E12ECD2C0E94F617888794C18C818F7390E0EE24E394853091050CF43D
:20164000EE240B8105950595059505950595C02EC1948F2D66E972E00E944B2CEE2021F012
:2016600082E4CC2029F001C084E221E0201B01C020E09091A90C992311F000E001C0012F77
:201680006F2D4EEF5FE00E94592C1123C1F08091A90C8823A1F4EE2021F41B1494F44FEF08
:2016A00001C040E08D2D6C2D24E00E942D3E81958295880F807E9B819F71982B9B83EE2008
:2016C000A1F582E46F2D4BE952E00E94472C888141E085FD40E08091A90C813011F020E0B3
:2016E00001C0212F80E66F2D0E942F29112309F433C18091A90C813009F02EC11B140CF02E
:201700002BC1888161E085FD60E08D2D40E021E00E942D3E91E0811190E09295990F907E99
:2017200088818F7D892B888317C1112309F414C12FC00F818F2D67E071E00E944B2C888102
:2017400084FF29C082E46F2D402F212F0E946318112309F401C180E6D81671F40E3060F005
:2017600007FF02C0009501C00E5000934B0785E692E20E94653DF0C08D2D6F8148EF25E14E
:201780000E942D3E8F83882319F488818F7E88831092A90CE1C08091A90C882311F020E0E7
:2017A00001C0212F82E46F2D40EA52E00E94402C8091A90C813019F4912F906801C090E837
:2017C0001B1414F0CC2401C0CD2C80E66F2D402F2CE904E6E92E0E94F6178F83112309F4B3
:2017E000BBC01B140CF0B8C08091A90C882309F0B3C08D2D60E04FEF21E00E942D3E8823FD
:2018000009F4AAC09881906198838F83A5C04A81440F440F4595459582E46F2D212F0D2D14
:201820000E9432408F739A81907C58C02B812F7182E46F2D4D2D012F0E944F2D8F719B8121
:20184000907E982B9B8388C08F2D65EA72E00E944B2C4C81842F807C61F042954695469581
:201860004370212F206882E46F2D50E00E94BD4307C082E46F2D4DEA52E0212F0E94402C79
:20188000112309F469C06C8162956695669563708D2D40E023E00E942D3E8295880F880F12
:2018A000807C9C819F73982B9C8356C00A81029506950695037082E46F2D41EB52E02EEDBF
:2018C0003FE0EE2492E0C92EA12E8D2C0E944B3E8295880F880F807C9A819F73982B9A836D
:2018E0003BC00D810F708F2D6D2D412F28EB32E00E94711A8F709D81907F0EC00D810295A9
:201900000F708F2D6D2D412F21EC32E00E94711A8295807F9D819F70982B9D831DC00E81A4
:201920000F708F2D6D2D412F2AEC32E00E94711A8F709E81907F0EC00E8102950F708F2DB1
:201940006D2D412F23ED32E00E94711A8295807F9E819F70982B9E83939488E0F80E87E00A
:20196000981609F0F0CDDF91CF911F910F91FF90EF90DF90CF90BF90AF909F908F907F901C
:2019800008952F923F924F925F926F927F928F929F92AF92BF92CF92DF92EF92FF920F93CA
:2019A0001F93CF93DF9300D0CDB7DEB7B82E68E046EE53E129E00CED12E0EE24E394B0E114
:2019C000CB2E0E94E61A882309F460C18EED92E00E94522C2090B50C2A9488E08A83CC2402
:2019E000332427FC30944B2C55249FE0492255248091AF0C8C0D803109F448C1682E772409
:201A00007301EE0CFF1CE60CF71CE0E0F6E0EE0EFF1E10E02614370459F48091A90C811779
:201A200039F48091B30C181634F0F2E0AF2E01C0AA24DD2404C0E3E0AE2EDD24D394F70155
:201A40008081123009F49FC0133009F4EAC0113009F44BC09181292F2F77253160F497FF64
:201A60000AC0873114F086518083F70180818A3E14F48A5E8083F0E1AF2AF7014081242F9C
:201A8000332727FD309537FF03C0309521953F4F2731B4F4842F60E049830E944E30498158
:201AA000882371F0F7012181822F8F77863150F4221F2227221F2295220F220F207C03C08B
:201AC00020E001C020E42A2983E06A810E94E23FDD2009F4CFC08B2DF701608145ED2CE283
:201AE0000E942D3EF7018083C5C0882309F4BEC0F70121812F77203148F4422F475E80E4EC
:201B00006A812A2D0E94411A20E01EC0822F90E08531910554F42031B1F0422F40518CE48F
:201B20006A812A2D0E94411A0EC02D3150F02C5186E46A8144E051E00A2D0E94001A2AE0D6
:201B400003C0235101C021E08CE16A8142E950E10A2D0E94592CDD2009F48CC0F70161815A
:201B60006F778B2D40E021E20E942D3E8F77F70191819078982B91838091A80C882309F43B
:201B800079C0128277C0882309F470C0F7012281822E992481818F77863109F46BC08831C1
:201BA00049F48CE56A814CE051E10A2D0E94592C23E01AC0803170F4822E992487FC9094CA
:201BC0002A2D20688CE56A81A4010E94BD432DE743E819C08D3150F0422F4F5F8CE56A81F2
:201BE0002A2D0E94411A27E240E00DC0AA2009F441C0F5E04F16510411F481E001C083E0BA
:201C00008093A90C37C0DD20A9F1552747FD50958B2DB40130E002E00E94A83DF7018283E6
:201C200029C0882319F1F7014181842F8F778631E8F4441F4427441F88E76A812A2D0E947C
:201C40002F29DD20B9F0F7016181661F6627661F8B2D40E021E00E942D3E87958827879548
:201C6000F70191819F77982B918304C0AA2011F01092A90C1F5F143009F0CCCEC394FA8160
:201C8000F85FFA8387E0C81609F0B2CE0F900F90DF91CF911F910F91FF90EF90DF90CF9078
:201CA000BF90AF909F908F907F906F905F904F903F902F90089580E0EFECFAE090819095F6
:201CC00091938F5F8038D1F708957F928F929F92AF92BF92CF92DF92EF92FF920F931F93A8
:201CE000CF93DF930F92CDB7DEB7182F62E046EE53E129E006E00E945221882309F499C060
:201D00008AE691E00E94522C7090B50C7A94103619F0143699F409C085E0781631F410924A
:201D2000B30C88EC80934F0B09C0E4E0E71530F07092AA0C80EA9EE40E94653D18E0E12E6B
:201D4000CC24DD24872C992487FC90941C2DC814D90411F402E001C000E0812F0E94045843
:201D60005C01412F4F5F49830E942C334981811711F420E401C020E0202B80E06E2D0E9407
:201D8000C017A5014A5F5F4F88E16E2D26E000E80E94E82B85E46E2D112329F448E751E013
:201DA0000E94472C15C0F501458120E00E94E23F9DE5FF24892F6E2D412F2F2D00E09983FA
:201DC0000E948840F39499819A5FF4E0FF1691F7F5018485882371F0982F9F7021F0807F9D
:201DE00021F04AE203C04FE401C049E48AE76E2D0E94692C0894C11CD11CF8E0EF0E80E3E1
:201E0000E81609F0A3CF89E362E871E00E944B2C4091AF034F5F86E369E320E00E94C017DA
:201E2000E5E07E1631F480914F0B882311F40E945B0E0F90DF91CF911F910F91FF90EF9031
:201E4000DF90CF90BF90AF909F908F907F900895EF920F938AE060E14CE628E204E00E949C
:201E600078138AE060E14CE628E20FEFEE240E94BA4040917E0250917F0280E168E10E9445
:201E8000472C0F91EF90089590937F0280937E020E94280F10927F0210927E020E94BA3C26
:201EA00008950F93CF93C82F1092B60C0E94280F4091AD0C5091AE0C4115510539F080E1F2
:201EC00060E22091AC0C00E80E94E82B8091B10C813019F44AE552E002C041E652E080E151
:201EE00068E20E94472CC03219F0C13271F407C08091B10C882349F081E08093B60C1092DF
:201F00007F0210927E021092B10CCF910F9108958F92AF92CF92DF92EF920F931F93CF93B7
:201F2000DF93C82F162FD42F6901A02E8E2C862F642F4C2F202F0E942F29812F6D2FA601FF
:201F400020E030E00C2FEE24CC24C3940E944B3EDF91CF911F910F91EF90DF90CF90AF9006
:201F60008F9008958F929F92AF92BF92CF92DF92EF92FF920F931F93CF93DF930F92CDB790
:201F8000DEB7982E60E04EE551E026E00FE811E094E1E92E34E1C32E0E94E61A882309F478
:201FA00036C284EA91E00E94522CD090B50CDA94B8E0BB2EFF24E091AF0CEF0D8091B30CFF
:201FC000181614F483E001C082E0DE1611F0AA2401C0A82EF0E0E431F10508F011C2EA5B00
:201FE000FF4FEE0FFF1F0590F491E02D09948B2D60EB71E07DC00091D106000F000F000F8E
:2020000006FB000F000B00F982E66B2D46EB51E026E23FE0AEEFEA2ECC24C394892C0E94D0
:202020004B3E8370880F880F880F9091D106977E2FC11091DB061295110F107E1595159537
:20204000159515951595812F880F810F880F82596B2D44E20E94692C6B2D6D5F82E64DE14A
:202060002FEF0E94E22AAA2069F0A0FE04C08091860686FD07C082E66B2D4DE127E000E013
:202080000E94781382E66B2D4CEB51E020E030E0012FEEEFEE2EF2E0CF2E892C0E944B3EC3
:2020A00087709091DB06987F982B9093DB06A8C18B2D64EC71E00E944B2C4091BC062A2D84
:2020C000206882E66B2D50E00E94BD43AA2009F497C1892D6091BC064AE02DE20E943C3EC9
:2020E0008093BC060E94EA3C8BC18B2D6DEC71E00E944B2C85C18B2D64ED71E00E944B2CC3
:202100004091BD062A2D206882E66B2D50E00E94991AAA2009F474C1892D6091BD0648E237
:2021200028E70E943C3E8093BD066AC18091D106829586958695817011E0912F981B892F31
:2021400062E64B2D21EE31E00A2DE92C0E94880F181B11701295110F110F107C8091D1060B
:202160008F7B18C08091D106881F8827881F11E0E12FE81B8E2F62E64B2D2DEE31E00A2DB4
:20218000E92C0E94880F181B1795112717958091D1068F77812B8093D10632C18B2D68EFA8
:2021A00071E00E944B2C4091D3062A2D206882E66B2D50E00E94BD4380914E076B2D4DE629
:2021C0000E94692CAA2009F41BC16091D306892D70E040E050E02AEF30E001E00E94A83D74
:2021E0008093D3060DC18B2D64E072E081CF8091D406817062E64B2D21E132E00A2DE92C8B
:202200000E94880F81709091D4069E7F11C08091D4068695817062E64B2D2DE132E00A2D9D
:20222000E92C0E94880F8170880F9091D4069D7F982B9093D406E4C08091D406869586952C
:20224000817062E64B2D25E232E00A2DE92C0E94880F8170880F880F9091D4069B7FE8CF44
:202260008B2D60E372E044CF8091D10682958695817062E64B2D2AE332E00A2DE92C0E9426
:20228000880F81708295880F807E9091D1069F7D982B9093D106B4C082E66B2D46EB51E063
:2022A0002FE93FE00091BF06EE2474E0C72E892C0E944B3E8093BF06A3C08B2D61E472E0CC
:2022C0000E944B2C8091D60690E0AC01440F551F440F551F480F591F2A2D206882E66B2D9F
:2022E0000E94BD4380914E076B2D43E70E94692CAA2009F485C0892D6091D60640E028E71F
:202300000E943C3E8093D6067BC08B2D6BE472E00E944B2C02E611E0812F0E948658482F85
:20232000802F6B2D2A2D0E947D401F5F0A5F153099F7AA2009F464C0892D6091D70640E055
:2023400027E10E943C3E8093D7065AC08B2D67EB71E00E944B2C04E210E0802F6B2D44E199
:2023600051E0212F0E94B0131F5F085E1430A9F747C04091D20643704F5C8CE06B2D2A2D46
:202380000E94082B94E200E010E0E091D206E370F0E0EE0FFF1FEE0FFF1FE00FF11FE55448
:2023A000FF4F4491892F6B2D20E099830E94411A0F5F1F4F9981985E943839F76091D206E0
:2023C0006370AA2089F08091B30C18166CF4892D40E023E00E943C3E83709091D2069C7F8D
:2023E000982B9093D2060CC080917902861741F0609379020E94441410924D070E94B849F8
:20240000F394F8E0BF0E87E0F81609F0D4CD0F90DF91CF911F910F91FF90EF90DF90CF90E6
:20242000BF90AF909F908F900895AF92BF92CF92DF92EF92FF920F931F93CF93DF93D82E7F
:2024400066E046EE53E129E00DE00E945221882309F46FC089EB93E00E94522CC091B50CD3
:20246000C15080E6D81619F094E6D91641F4C83030F4C0934B0785E692E20E94653D18E074
:20248000CC24AC2EBB24A7FCB0942091AF0C2C0DE22EFF24AE14BF0411F4D2E001C0D0E027
:2024A000283048F42F5F80E0612F40EC53E00D2F0E94001A2FC0275080E0612F44E051E008
:2024C00000E00E94001AC8302CF1DD2329F08091B30C18160CF4D160EE0CFF1CE8E6F6E04A
:2024E000EE0EFF1EF701408151818CE3612F2D2F0E94BD43DD2371F0F701608171818D2D55
:2025000048E15CEF28EE33E002E00E94A83DF70191838083C394185FF7E0CF1609F0B5CF9F
:20252000C83038F4C0934B0787E097E569E10E940A42DF91CF911F910F91FF90EF90DF901A
:20254000CF90BF90AF9008954F925F926F927F929F92AF92BF92CF92DF92EF92FF920F93C4
:202560001F93CF93DF93982E64E04EE551E026E001E00E945221882309F4AAC083EC93E077
:202580000E94522CCC24DD2449E1642E712C412C51E0552E1C2DDC2DD695DD0FDD0FDD0F2F
:2025A000D75F7601C0FE02C0C5E401C0C0E0212F2F5F8C2F6D2F48EC53E000E00E94001AAC
:2025C0008C2F865F6D2F4AE30E94692C812F0E94C42F5C011C2F1B5D0C2F0F5E15504A2D72
:2025E0004F704A3014F0495C01C0405D413414F028E001C020E0812F6D2F0E94082B34E024
:20260000B694A7943A95E1F7101741F7C55C84E0C816D10484F4E0917902F0E0EE0FFF1FA8
:20262000EE0FFF1FEC0DFD1DE554FF4FE490FF240894E108F108F701EE0FFF1FEF5DFC4F26
:2026400020813181269DC001279D900D369D900D1124B2010E940465462F8C2F6D2F0E9471
:202660005E220894C11CD11C87E0C816D10409F091CF85E461E24AEC53E00E94472C409106
:202680007A0250917B0286E661E220E00E94BD438EE26EEC73E00E944B2C40917C02809179
:2026A000B50C813011F422E001C020E086E66EE250E00E94991A8091B50C813049F4892D29
:2026C0006091BE0641E82FE70E943C3E8093BE06DF91CF911F910F91FF90EF90DF90CF9017
:2026E000BF90AF909F907F906F905F904F9008958F929F92BF92CF92DF92EF92FF920F937B
:202700001F93CF93DF93E82EB42EF02E162FCC24DD24862E992487FC9094E401C20FD11D2B
:202720000DC0103438F48E2D612F4B2D2FEF0F2D0E94992A1F5F0894C11CD11CC601880D9A
:20274000991D8C179D076CF3DF91CF911F910F91FF90EF90DF90CF90BF909F908F900895E7
:20276000DF92EF92FF920F931F93CF93DF93FA017491EA0122963196E491F0E03796A3E0AF
:20278000F595E795AA95E1F7279F90011124DE2EE29FA001E39F500DF29F500D1124C40F8D
:2027A000D51F66956695669500E010E040E0262F30E03695322F222737952795280F311D5D
:2027C000E72EFF2414C0D901A00FB11FA15BB84FCE0104C0FC010196E491ED93582F5C1B77
:2027E0005717C0F3CE0DDF1D4F5F00581F4F4D1550F3DF91CF911F910F91FF90EF90DF902B
:202800000895EF92FF920F931F93CF93DF938C01EB017A010E94C34382E060E049E153E046
:2028200020E00E94B01384E260E0A80124E00E94402C84E260E147E853E024E00E94402CB7
:2028400080E060E040E820E200E00E947813209721F088E2BE010E944B2CE114F10439F084
:2028600088E3B7010E944B2C84E00E94EF3C0E94BA3C0E94EA3C0E94B849DF91CF911F9168
:202880000F91FF90EF9008951F93CF93DF938091C10383FD3CC080917902817012E0181B74
:2028A0000E94AC2FE12FF0E0EE0FFF1FE457F94FC381D4818091D40680FF06C0D095C19599
:2028C000DF4F878D90A102C081899289C81BD90B6096812F0E94D12FC817D907C4F48FEE9B
:2028E00092E068EF72E048E055E00E9401140E94AC2F812F0E94D12F26B320952E7739F47A
:20290000C817D90724F40E94EA2FA895F0CFDF91CF911F9108954AE053E00E94011486B3BF
:2029200080958E7721F40E94EA2FA895F8CF0895DF92EF92FF920F931F93CF93DF9363E01E
:202940004EE551E026E000E00E945221882309F456C08FE893E00E94522C84E568E144E971
:2029600053E00E94472CC8E3EE24FF2418E3D0E3DD2EDE2D012F0C1BD43010F00D2D0C1BAF
:202980004D2F4F5F80E3602F20E00E94E23FA701425F5F4F84E4602F0E946D2CD83041F1F5
:2029A0002D2F2695022F000F000F000F005E84E5602F44E151E00E94B013E0FE02C088E782
:2029C00001C08CE6F7013696602FAF010E946D2CD63070F480E06C2F4FE152E12D2F00E082
:2029E0000E94592C80E26C2F4D2F50E00E946D2C0894E11CF11CC850C03F09F0BACFDF911D
:202A0000CF911F910F91FF90EF90DF90089501C0A895809195021816DCF381E080931002C3
:202A200080919202882349F08091AB0C882329F483E892E00E94CA3BF3CF80918B028823EE
:202A400049F08091AB0C882329F483E892E00E94354AF3CF109210020895DF92EF92FF9219
:202A60000F931F93CF93DF938C017B01C0E0D0E08091890290E0B7016C1B7D0B86179707C7
:202A800008F4BC01D62EC8018C0F9D1F0E94FC43CD0DD11D809189028D1980938902882325
:202AA00009F03FC08091880290E0B8016C0F7D1FA7014C1B5D0B8417950708F4AC0183E881
:202AC00092E050E00E94C749C80FD11D90918802981B90938802992321F583E892E068E8D3
:202AE00072E041E050E00E94C7498130D1F420918802822F90E027FF0CC034E09595879563
:202B00003A95E1F78770809389022F7020938802AFCF26FFADCF2F73209389021092880272
:202B2000A7CFCE01DF91CF911F910F91FF90EF90DF900895682F83E892E00E94972C10929B
:202B400089021092880208951F93CF93DF9300D0CDB7DEB7182F81E14A8369830E949A15FF
:202B60001092490269816295607F60934A02109383024A81409310020F900F90DF91CF9183
:202B80001F910895EF92FF920F93CF93DF937A01E901402F0E94A41580E180938B02F092AE
:202BA0008F02E0928E02D0938D02C0938C021092900283E892E00E94354A809110028823AF
:202BC00041F080918B02882321F08091AB0C882381F3DF91CF910F91FF90EF9008950F93C6
:202BE000CF93C82F882311F00E9407158091820280FF0EC081508093820280E061E04CE8F3
:202C000056E022E530E00C2F0E94C215CC2389F08091820281FF0DC0109282028091BB0671
:202C20008F5F62E040EB53E022ED32E00C2F0E94C215CF910F9108951F93CF93DF93182FC7
:202C4000EB01CB016AE00E94FC431031D8F4812F8F5F0E949A15CE016AE070E00E942D1548
:202C60008A30910579F48091830290E0FC01EE0FFF1FE80FF91FEA5EFD4F80812181922F72
:202C80009F7002C080E090E0DF91CF911F910895FF920F931F93CF93DF93F62E1091AA0C42
:202CA000662311F0115001C01F5F8823C9F18091AA0C0E94FC57EC01098117FF06C0802FC7
:202CC000837009F46FC08D5F08C01E3059F4802F8370833009F466C08F5F83700C7F082B6F
:202CE00009835EC0812F0E94FC57FC0181818027837019F480818370D1F58981982F937051
:202D0000FF2029F0992309F44DC09D5F04C0933009F448C09F5F93708C7F892B898340C061
:202D20008091AA0C0E94EF57EC01088117FF05C0802F8F70B9F1815F07C0103251F4802F5E
:202D40008F708F3079F18F5F8F70007F082B088327C0812F0E94EF57FC010F7084818F731F
:202D600041F080818F70081721F489E011C084E00FC0FF2021F00023A9F0015F03C00F3033
:202D800089F00F5F0F708881807F802B888308C098812081299391938150D1F71093AA0CBB
:202DA00081E001C080E0DF91CF911F910F91FF9008958F929F92AF92BF92DF92EF92FF92DE
:202DC0000F931F93CF93DF93182FE62EEA01D22EF02E57FF10C022FF02C089E001C085E0CF
:202DE000912F981B892F6E2D4DE22D2D0E94082BD095C195DF4FCE016CE370E00E9404654D
:202E00004B015C01812FD2FE04C08D5EC12FC65E03C0875FC12FC15F2F2D2D216E2D4AE39B
:202E20000E94082B2D2D2069812F6E2DA40102E00E9483422F2D20698C2F6E2DA5010E941E
:202E40008342DF91CF911F910F91FF90EF90DF90BF90AF909F908F9008950F931F93CF93E1
:202E6000DF93C82F8CE993E00E94522CC13660F0C33628F0C33641F48BE197E302C08BEE3A
:202E800093E30E94473D77C086E068E042EA53E00E94472C4091990250919A028EE168E09D
:202EA00020E000E00E94D91640919B0250919C0288E468E020E00E94D91686E060E14AEA94
:202EC00053E00E94472C40911B0350911C038EE160E120E00E94D91640911D0350911E0387
:202EE00064E0569547956A95E1F788E460E120E00E94D91686E660E042EB53E00E94472C91
:202F000040911F035091200388E460E020E00E94D916C091A102CC0FCC0B80911A03C823BE
:202F200082E06CE34EE720E00E94E22A85E06CE143E20E94952ADBE08D2F6BE343E00E943B
:202F4000952ADA5FD338C1F7D6E01CE3EC2FF0E0EE55FD4F4081612F641B8D2F0E94952A9A
:202F6000CF5FC83708F0C0E080911A03C81719F0DF5FDE3759F7DF91CF911F910F91089516
:202F80000F931F93CF93DF93182FD62FC42F022F442331F442E05FE020E00E94592C21C0A4
:202FA00047FF06C0825048E02EE50E94392AC19503FF0FC04C2F552747FD5095415050408B
:202FC000202F277F812F8A5F6D2F01E00E94834208C02C2F2150812F6D2F46EB53E00E9499
:202FE000001ADF91CF911F910F910895CF92DF92EF92FF920F931F93CF93DF93D82FF62EC3
:20300000C42FD22E102F0E2DEE24E39401FD02C0EE241FC080E8C816E1F481E09091B30CAD
:20302000911180E08093B30C8C2F83588B3F68F06D2D772767FD7095412F552747FD50954E
:203040008C2F0E943530C82F01C0CEE782E00E943F2D8C2F83588B3FD0F007FF02C0005891
:2030600001C0D1512C2F2D578D2F6F2D44E051E00E94001AEE20E9F08C2D6C2F70E04EE765
:2030800050E022E830E002E00E94A83D11C04C2F552747FD50958D2F6F2D202F0E94BD4343
:2030A000EE2039F08C2D6C2F4D2D212F0E942D3EC82F8C2FDF91CF911F910F91FF90EF90CE
:2030C000DF90CF9008950F931F93CF93DF93182FD62FC42F022F47FF07C0865041E20E9445
:2030E000082B86E08C1BC82FCE3044F4812F6D2F43EB5FE02C2F0E94592C08C02C2F2D5088
:20310000812F6D2F4FEE53E00E94001ADF91CF911F910F9108954F925F926F927F928F9275
:20312000AF92BF92CF92DF92EF92FF920F931F93CF93DF93D82E8091AA0C0E94FC57EC0142
:20314000498143704F5F8DE260E020E00E94411A8D2D60E040E050E020E00CED13E0A4E0DE
:20316000EA2EB5E0CB2E0E94E61A882309F438C18EE195E00E94522C4090B50C66247724AC
:20318000E8E0FE2E552447FC5094F4E0BF2E862D4614570431F49091B30C191624F413E033
:2031A00003C010E001C012E08230D1F1833030F4882371F0813009F0A6C01AC0843009F4B7
:2031C00079C0843008F464C0853009F09CC082C08F2D6DE071E00E944B2C8EE36F2D4A814B
:2031E00020E004E6E12ECD2C0E94F6178A838BC08F2D61EE73E00E944B2C898187FF03C00C
:203200009B819923E9F58F7789838EE36F2D4B812CE904E6E12ECD2C0E94F6178B8373C016
:203220008F2D67E071E00E944B2C898187FD03C08B81882329F58CE26F2D4B81212F0E9433
:203240006318112309F45FC08D2D6B8140E025E10E942D3E8B83882309F455C099819068ED
:2032600099838E300CF44FC090E6D91609F04BC08E5080934B0785E692E20E94653D43C093
:203280008CE26F2D46EE53E0212F0E94402C3BC02981269526952F7180E26F2D4D2D012FFC
:2032A0000E944F2D8F71880F880F99819378982B998329C04881459545958CE26F2D212FFE
:2032C0000D2D0E943240880F880F98819370982B988319C0888183700B2D081B8CE26F2D3E
:2032E0004AEE53E023EB3FE0EE24E39473E0C72EA12E8D2C0E944B3E9B2D981B937088812B
:203300008C7F892B888388E0F80E0894611C711C90E4F91609F03BCF85EE92E360E00E947F
:203320000A42E981E370F0E0EE0FFF1FEF5DFC4FC081D181CE010E94E5322C0109E110E0E0
:20334000C09FC001C19F900DD09F900D1124612CA1E07A2EB3010E940465AB0188E760E33C
:2033600020E00E94BD43409EC001419E900D509E900D1124B3010E940465AB0184E568E0B4
:2033800020E00E94BD439E01B5E036952795BA95E1F7225A3F4FC20180509C4F62E070E08F
:2033A0000E940465CB0136E0880F991F3A95E1F7861B970B892F992786958695CFE3D0E0D7
:2033C000C81BD90B122F6C2F6350822F47E00E94952A812F83506C2F47E020E00E94E22A6B
:2033E000DF91CF911F910F91FF90EF90DF90CF90BF90AF908F907F906F905F904F900895AB
:20340000DF92EF92FF920F931F93CF93DF93E82EF62EEA01D22E102F202F0E94402C202FF1
:20342000206880914E076F2D4D2D50E002E00E9483428E2D6F2DAE01212F0E94402CDF913B
:20344000CF911F910F91FF90EF90DF9008950F93FA013A969AE03291332371F49150D9F78C
:203460002F5F006141EF53E00E94001A08C000682AE00E94E82B03C09923C9F7F1CF0F91B0
:2034800008950F93022F442321F442E05FE020E018C0242F413120F4215041E852E111C090
:2034A000493120F4205141E754E005C0493230F4285145E754E00E94001A05C0285246E84B
:2034C00051E10E94592C0F9108954E3038F0433220F44D500E94E23F089545510E94411A97
:2034E00008950F931F93CF93DF93D82F162FC42FB9010E944B2C802F90E0AC01440F551F62
:20350000440F551F480F591F2C2F206A82E46D2F0E94BD43CC2339F0812F602F40E02FE006
:203520000E942D3E082F802FDF91CF911F910F9108950F931F93CF93DF93062F122FC22F4C
:20354000D0E0FE01E073F070E033F10511F420E001C020E2212B2F7B602F0E94BD43C6FD4E
:2035600008C0212F2D7F80914E07602F46E70E94082BDF91CF911F910F9108951F93CF93BF
:20358000DF93182FD62FC42F80E860E04D2F50E02C2F0E94BD43DA3010F08FE601C085E77D
:2035A00060E04FE22C2F0E94082BDA3010F08FE601C085E7E12FF0E0319660E0AF012C2FCC
:2035C0000E94BD43DF91CF911F9108959F92AF92BF92CF92DF92EF92FF920F931F93CF93CF
:2035E000DF930F92CDB7DEB7782F5A01522FD090B50C9090A90C0115110549F08E2DDE1414
:2036000008F48D2DF801E80FF11DF49001C0FF24A114B10409F43BC0DD2071F58091520B5B
:20362000882351F5743659F0753611F0E62F13C0662311F0E62F01C0E52FE1500CC0262F4C
:2036400030E0852F90E00197281739071CF4E62FEF5F01C0E0E0FF27E7FDF095862F90E077
:20366000E817F90759F0EE0FFF1FEA0DFB1D859194910E94473D5DC040E001C042E01092B5
:20368000520B862F652F79830E94BE1A7981703671F1713690F4733409F48DC0743430F424
:2036A0007132C9F1723409F0A4C06BC0743409F447C0753409F09DC054C0743609F443C016
:2036C000753638F4723609F45EC0733609F091C074C07138D9F07F3B21F0753609F089C0FF
:2036E00043C08FEF8093B30C9924DD2482C0A114B10419F0DD2009F4B1C081E09091B30C58
:2037000019160CF480E08093B30C73C01092B30C0E942A3D6EC08091B30C18161CF41092CD
:20372000B30C67C0DD2019F0A114B10421F40E942A3D80E083C080E00E94EF3C99248EC03A
:203740009F1409F456C00115110509F452C08091B30C18160CF44DC09F1408F047C0939484
:2037600048C0992009F445C00115110509F441C08091B30C18160CF43CC09920A9F19A94E1
:2037800038C0DC14B1F18091B30C181694F1DC1410F4D39401C0DD240115110539F18D2DEF
:2037A000ED1408F48E2DF801E80FF11DE491EF3F09F051C0ECCFDD20E1F08091B30C18161F
:2037C000C4F0DD2011F0DA9401C0DC2C0115110569F08D2DED1408F48E2DF801E80FF11D0B
:2037E000E491EF3FC1F5EDCF9F2C03C0992401C09E2EA114B10411F047E001C046E0DD2066
:2038000019F41092AF0C15C08D2D90E02091AF0C821B9109242F30E0281739071CF48D2DF0
:20382000841B05C01816190624F08D2D81508093AF0CD092B50C9092A90C81E00F90DF9100
:20384000CF911F910F91FF90EF90DF90CF90BF90AF909F9008959E1660F2CACFDD24D1CF42
:203860002F923F924F925F926F927F928F929F92AF92BF92CF92DF92EF92FF920F931F93B6
:20388000CF93DF93CDB7DEB7AA970FB6F894DEBF0FBECDBF89A365E046EE53E129E007EFDB
:2038A00013E0B1E1EB2E91E1C92E0E94E61A882309F4B2C289E094E00E94522C3090B50CC5
:2038C0003A942FE0231520F1832D0E940C57FC012281332727FD309524523A4FE32DF0E04B
:2038E000EE0FFF1FE15DFC4F8081918162E070E00E940465260F371F8EE460E0A90120E08D
:203900000E94BD438EE460E048EF5EE00E94472C8091B60C882381F0832D0E940C57FC0128
:203920008481982F909590788F77892B84831092B60C82E00E94EF3CE8E0CE2E1AA239A6DB
:203940003090AF0CFAA13F0E20E1321609F0C3C039A4321611F412E001C010E08091500B06
:20396000882311F020E001C0212F82E16C2D41E154E00E94402C112309F44EC21092B30C88
:2039800049A1403809F048C289E18093500B80E80E94573D87E060E00E945D457FE6472E87
:2039A00073E0572E4E010894811C911C7401620110E0F60141915191619171916F01812F73
:2039C0000E941857F701819391937F011F5F103181F785E060E00E945D4500E010E0F20143
:2039E00041915191619171912F01802F0E941857F401219131914F01AC01421B530B9A0173
:203A0000D801AA0FBB1FAA0FBB1FAD01400F511FFA01E951FB4F80816181962F9F73880F6A
:203A2000991F880F991F9595879595958795FA01E851FB4F408147FF03C0309521953F4FA2
:203A4000820F931F5CEF883195072CF0E3E0883E9E0724F405C088E19CEF02C088EE93E0BD
:203A6000FD01E00FF11FE951FB4F80839F738181807C892B81830F5F1F4F0031110509F0DE
:203A8000AECF10E0123021F48091C00383FD19C08091AF03612F0E945C587C0100E0802F80
:203AA000612F0E941258F1E0853F9F073CF4AC014E195F09802F612F0E94A42D0F5F05302E
:203AC00071F71F5F1430F1F682E00E943F2D82E00E94EF3CA1C1832D0E940C577C01809191
:203AE000C10385FF04C0F7018281882319F054E6252E02C04DE7242E432D475E80E06C2D28
:203B000020E00E94411ADD24432D50E05CA34BA3440F551F415D5C4F5EA34DA38BA19CA1B0
:203B2000880F991F880F991F81599C4F98A78FA3922D91959AA7E9A5E31551F48091A90CFA
:203B40008D1531F48091B30C18162CF012E001C010E000E002C013E001E0F2E0DF1609F4A7
:203B6000C8C0FD1520F021E0D21649F4A8C043E0D41609F4D8C054E0D51609F414C1F70182
:203B800043818481582F5F73440F551F440F551F5595479555954795212F206280E36C2D1B
:203BA0000E94BD430023D9F0F70163818481782F7F73660F771F660F771F759567957595D7
:203BC000679589A148E15CEF28EE33E006E00E94A83DF70183839F738481807C1AC1112395
:203BE00009F4FEC0F9A1F03809F0FAC0EDA1FEA1808191812C01662457FC6094762C85E050
:203C000060E00E945D45EFA1F8A580809180A280B380F7011181B7FC02C01C590BC0B0940A
:203C2000A09490948094811C911CA11CB11CF70110811456C301B20120EA36E841E050E061
:203C40000E94C5642B013C01C501B40126EF3FEF4FEF5FEF0E94C564212F332727FD309588
:203C6000432F532F0E94C564DC01CB01480E591E6A1E7B1E20E030E941E050E02819390901
:203C80004A095B09C301B2010E94396589019A01F701448147FF05C088279927801B910B23
:203CA00001C0C801F7018383892F8F73407C482B44831092B30C82E00E943F2D91C0F701B2
:203CC00040814456552747FD509588E46C2D212F0E94BD43002309F483C0F70160816456F7
:203CE00089A14AA529E10E942D3E8C59F701808377C0F70141814C59552747FD509580E613
:203D00006C2D212F0E94BD43002309F469C0F70161816C5989A147EE222D0E942D3E84569B
:203D2000F70181835DC0F70144814095441F4427441F8FE7841B482F84E66C2D212F0E9426
:203D4000082B002309F44CC0F7016481661F6627661F89A140E021E00E942D3E082F8091F0
:203D6000A80C882309F44AC010E0812F0E94EF57FC0120812F7030E04BA15CA124173507A8
:203D800021F484818F73833021F01F5F103269F735C082E294E090937F0280937E0291E0AE
:203DA0009093B10C1DC0F7014281552747FD509544525A4F80E86C2D212F0E94BD43002391
:203DC00079F0F701818118165CF0808187FD08C089A1628143E82DE70E942D3EF701828363
:203DE000D394F5E0DF1609F0A6CE2AA12F5F2AA348E0C40E273009F0A3CD0EC081E00023F3
:203E000009F480E0982F979599279795F70184818F77892B8483E4CFAA960FB6F894DEBFC7
:203E20000FBECDBFDF91CF911F910F91FF90EF90DF90CF90BF90AF909F908F907F906F9043
:203E40005F904F903F902F900895BF92CF92DF92EF92FF920F931F93CF93DF93B82E0E9484
:203E60009C58C82F882311F0CC2402C0A6E0CA2E8B2D61E04EE551E026E00EE214E0F5E05F
:203E8000EF2E0E94E61A882309F4F7C084E394E00E94522CCC2339F08AE268E14CE354E0D9
:203EA0000E94472CEAC08091B30C18161CF4E3E0CE2E02C072E0C72E82E168E042E454E068
:203EC0000E94472CDD24D39460E1F62E8D2D0E948658482FC82FD0E0CC0FDD1FCA53D94F8C
:203EE00080E06F2D20E00E94411AEE248091B50C8D1521F48091A90C8E1511F010E001C013
:203F00001C2D81E0E81611F1E2E02881EE1689F1229526952695237088E16F2D4BE35FE0DC
:203F2000012F0E94592C10FF3AC0688162956695669563708B2D40E022E00E943C3E82956B
:203F4000880F880F807C98819F7327C04981552747FD509582E46F2D212F0E94BD4310FFB3
:203F60001EC069818B2D4CE924E60E943C3E898316C02F7388E46F2D45E45FE0012F0E94A0
:203F8000592C10FF0CC068816F738B2D40E023E00E943C3E8F739881907C982B9883E39483
:203FA000F3E0EF1609F0A2CF88E0F80ED394E0E3FE1609F08BCF8091B50C853011F0C0E098
:203FC00001C0CC2D80E360E574E00E944B2C4091D806552747FD5095465F5F4F2C2F20628E
:203FE0008EE460E30E94BD43CC2349F08B2D6091D80646EF28E20E943C3E8093D80680915E
:20400000B50C863009F0CC2480E068E34BE554E02C2D0E94402C08EB1CE030ECE32E36E098
:20402000F32EC0E3F801419151918F01F701819191917F01481B590B440F551F8C2F68E33F
:2040400020E20E94BD43C85EC03961F7CC20A9F0F0E6BF1691F48FEF8093B30CA0ECB6E01E
:20406000E8EBFCE088E001900D928150E1F781E00E943F2D80E00E94EF3CDF91CF911F9134
:204080000F91FF90EF90DF90CF90BF900895AF92BF92CF92DF92EF92FF920F931F93CF938C
:2040A000DF93D82E67E046EE53E129E00FE514E0EE24E394CCE0CC2E0E94E61A882309F46F
:2040C000E6C081E694E00E94522CA090B50CAA94B8E0FB2EEE24BB24A7FCB0940091AF0C2B
:2040E0000E0D202F30E0A216B30631F48091B30C181624F413E003C010E001C012E0802F92
:204100000E945F53EC01065F802F60E00E944E30882311F020E401C020E080E06F2D402F0E
:204120000E94E23F2A818091A90C882311F000E001C0012F84E16F2D41E150E10E94592C53
:204140008A81853058F09091A90C4881883008F494C08E3008F496C003E001C000E0488153
:204160008091A90C813071F120E02DC0212F84E46F2D0E94E23F49818091A90C823011F01F
:2041800020E001C0212F86E66F2D0E94E23F01E096E13AEE26E14AEE2DC0212F84E46F2D43
:2041A0000E94411A49818091A90C823011F020E001C0212F86E66F2D0E94411A02E09AE24B
:2041C00030E016C0212F84E46F2D0E94411A4981552747FD50958091A90C823011F020E0C0
:2041E00001C0212F82E76F2D0E94BD439DE733E82AE240E08091B30C1816BCF51123A9F1BF
:204200008091A90C813021F1813018F0823069F525C08D2D6A8140E02FE00E942D3E8A8379
:2042200010E0853038F0883040F08E3048F482E090E008C080E090E005C081E090E002C00D
:2042400083E090E00817190781F0188219820DC08D2D68810E942D3E888307C08D2D6981B3
:20426000432F292F0E942D3E8983E39488E0F80E87E0E81609F032CF0AC0913009F476CF4A
:2042800020E075CF913009F488CF20E087CFDF91CF911F910F91FF90EF90DF90CF90BF9024
:2042A000AF900895CF92EF920F931F93C02E00E010E0EE240E94E61A1F910F91EF90CF904C
:2042C00008950F9362E04EE551E026E000E00E9452218823C1F088E794E00E94522C80E13E
:2042E00060E874E00E944B2C88E16FE874E00E944B2C80E260EA74E00E944B2C88E36FEAFF
:2043000074E00E944B2C0F910895CF92DF92EF92FF920F931F93CF93DF93182F65E04EE528
:2043200051E026E000E00E945221882309F4BDC08BEB94E00E94522CCEE9D1E0802F0E9469
:20434000C42F9C0148815981841795070CF4AC01499359934C855D85421753070CF4A9016E
:204360005D874C870F5F073049F78091510B8093520B103219F01F3B59F408C08F5F809309
:20438000510B833029F481E00E943F2D1092510B8091510B813061F0813020F0823009F0A9
:2043A00082C02FC088E167EC74E00E944B2C7BC08091520B882311F022E001C020E08EE11C
:2043C00060E148ED54E00E94402C88E165EE74E00E944B2CC0E9D1E0CC2408E91AE398E646
:2043E000E92E95ECF92E1F870E87FD8EEC8E8C2D0E94C42F89939993C39487E0C81699F7FC
:2044000052C08091520B882311F022E001C020E082E160E147EF54E00E94402C88E165EED5
:2044200074E00E944B2C0EE911E0CFE8D6E040E080E4E82EF12CF801219131918F01C484BE
:20444000D584C9018C199D0997FF03C0909581959F4F83339105ECF0F80170970190F08142
:20446000E02DF983E883CF01821B930B9C01B7010E940465261B370B3F872E8796012E1BFF
:204480003F0BC901B7010E940465261B370B3D8F2C8F4F5F2296473071F60E94525390938D
:2044A000BA068093B9060E94F840DF91CF911F910F91FF90EF90DF90CF900895552747FD37
:2044C000509520E00E94BD4308952F923F924F925F926F927F928F929F92AF92BF92CF92FD
:2044E000DF92EF92FF920F931F93CF93DF93CDB7DEB729970FB6F894DEBF0FBECDBF182FAA
:2045000085E295E00E94522C40914B0750E04F5F5F4F8FE160E022E80E94BD4380914B0731
:204520000E948353F82E592E5B01153409F47CC0163450F4113209F467C0143409F49FC0DF
:20454000103209F0FBC00FC0153609F46DC0163620F4143609F0F2C092C01038A9F01F3B3F
:2045600009F0ECC00FC08091B30C18161CF01092A90C08C0813031F4552021F082E08093CD
:20458000B30CDCC081E0FBCF8091B30C18160CF4D5C08091A90C8F5F8093A90C853018F0C9
:2045A0008CEF8093A90C8F2D8695F5016501C80ED11CA2E38A2E912C8F2D90E001973C01C7
:2045C00018C0AF014C195D098091A90C90E0489F9001499F300D589F300D1124289DC001C6
:2045E000299D900D389D900D1124B3010E94046561938E2F8A198F1520F382E00E943F2D77
:2046000080E80E94573D9AC08091B30C18164CF481508093B30C882309F090C01092A90C76
:204620008DC00E942A3D8AC08091B30C813049F48091A90C882309F481C081508093A90CD4
:204640007DC018160CF47AC0552031F062E06F1980914B0740E00CC083E08F1560F44F2D2F
:2046600050E04F5F5F4F5595479580914B076FEF0E94034498C182E00E94EF3C94C1809150
:20468000B30C813079F44091A90C242F30E08F2D90E00197281739070CF050C04F5F409384
:2046A000A90C4CC018160CF449C0552041F46F2D625080914B074F2D0E9403443FC090E1D2
:2046C0009F15C8F180914B0761E040E00E9403448823A1F12F2D220F2250822E992487FC94
:2046E00090948A0C9B1C72E0C72ED12C21C0E22FE595FF27E7FDF095EA0DFB1D20FF11C00B
:204700004081552747FD50958181992787FD9095480F591FCA01B6010E940465F401608394
:2047200003C08081F4018083215008948108910827FFDDCF03C082E00E94EF3C88E36BE212
:2047400075E00E944B2C8091B30C181614F002E001C000E08F2C9924202F20688CE168E35F
:20476000A4010E94BD4380914E07552019F040E355E002C044E355E068E3202F0E94402CF0
:2047800087E097E560E00E940A424F2C4694CF2CDD240894C108D108CA0CDB1C35011A82DA
:2047A00019821C821B82AA24BB241401089421083108F12FF256FD83812F84568E83EEEF03
:2047C000FFEF8E0E9F1E98868F828F2CE8C089819A81642D70E00E9404655DE3E52EE60EA8
:2047E000F3012081332727FD3095C90166E0880F991F6A95E1F7821B930B8456974E68E366
:204800007FEF0E940465362F5520C1F09920B1F0A214B3049CF4F6018081992787FD9095DC
:2048200026E0880F991F2A95E1F78C59964E68EC70E00E9404654DE3E42EE60E8EE3F82E47
:20484000F30E8E2D6F2D43E023E002E039870E9478138091B30C398518160CF08CC09091E6
:20486000A90C991509F087C0813021F08091860686FD10C0632F635C8E2D815045E025E0DC
:2048800002E00E9478138E2D6F2D43E023E000E00E9478138B819C81B1010E940465062F64
:2048A0000456552039F0992029F0A214B30414F4F601008187E060E147E355E00E94472C25
:2048C000402F552747FD509583E160E120E80E94BD4387E068E14AE355E00E94472CF3015A
:2048E0004081552747FD509583E168E120E80E94BD4383E06CE048E226E10FEFEE240E9469
:20490000BA40FD81F23020F0123411F0133449F4812FF30160814CE924E60E942D3EF3015D
:204920008083992041F1A214B3042CF58091B30C823009F5FE81F23020F0153411F0143438
:20494000D1F4F6016081F1E09F1629F0F601319740814F5F01C04DE98F819885A816B9064C
:2049600021F0F6012181215001C023E6812F0E942D3EF60180830894A11CB11C0894C11CFC
:20498000D11C0894611C711C8B819C8188539F4F9C838B83E981FA81B096FA83E9839A2C8B
:2049A000A81408F414CF29960FB6F894DEBF0FBECDBFDF91CF911F910F91FF90EF90DF90B9
:2049C000CF90BF90AF909F908F907F906F905F904F903F902F9008952F923F925F926F9211
:2049E0007F928F929F92AF92BF92CF92DF92EF92FF920F931F93CF93DF93F82EA62E10911B
:204A0000B50C8091B30C181614F41092B30C8091AA0CFF2031F00E94FC57FC01C181C37000
:204A200005C00E94EF57FC01C081CF70CF5FF3E6FA15A0F082E6A81608F0E8C0E1E2AE1659
:204A4000A1F1EA1528F0F0E2AF1609F057C160C08A2D8254823008F051C1D8C085E88A15F8
:204A600068F0E4E8AE1608F0A3C0F0E8AF1609F46FC081E8A81609F041C106C08A2D8E5BA2
:204A8000823008F03BC16BC08091B40C882369F08091B20C882349F48F2D6091AA0C0E94B4
:204AA000C24481E80E94573DAA248091B40C882309F424C19091B20C992331F1813031F492
:204AC0008F2D6091AA0C0E94C24418C061E08091B20C18160CF060E08F2D0E9448168091AC
:204AE000B20C87FF02C091E001C09FEF890F8093B20C882359F782E00E943F2D8091B00C4F
:204B00008093B50C1092B20C1092B40CAA24F6C01123F1F080914C07882341F08091B40C55
:204B20008823B1F08091B20C882391F48091B40C813011F482E001C081E08093B40C80913B
:204B4000AA0C8093550BC093560B1093B00CD6C08A2D0E94573D8091B20C882329F0109261
:204B6000B40C1092B20CCAC0112309F4C7C08091B40C882311F010924C0780914C07882352
:204B800059F08F2D0E94FD2D882309F0B7C08F2D6091AA0C0E94FE44FF2019F08BE898E1CE
:204BA00002C084E69AE00E94653D1092B40C3BC38091B40C882309F4A1C08091B20C882357
:204BC00009F09CC08F2D0E94FD2D882309F096C0C0934C07E4E8AE1629F48091AA0C8F5FF6
:204BE0008093AA0C8F2D6091AA0C0E94FE44FF2019F08BE898E102C084E69AE00E94653DA7
:204C00001092B40C8A2D0E94573D0DC38091B40C882309F473C0CA2DCF719091B20CE92E9C
:204C2000C33011F4EA9401C0E394992309F047C0813009F044C08F2D0E94FD2D882309F030
:204C40005DC0D090AA0C8D2DFF2079F00E94FC57BC014D2D50E040955095425F5F4F440F27
:204C6000551F440F551F049612C00E94EF57BC018D2D90E0809590958096AC01E3E0440FAB
:204C8000551FEA95E1F7480F591FCB0109960E94546582E00E943F2DC23021F48091AA0C76
:204CA0008F5F1BC02091AF0C812F90E0821B9109863091050CF12F5F2093AF0C1DC0EE2038
:204CC00079F4813069F48F2D6091AA0C0E94C244C33091F48091AA0C81508093AA0C0CC0A9
:204CE00061E0C33009F060E08F2D0E944816882329F082E00E943F2DE092B20CFF2019F0FF
:204D00008EE195E002C08DE395E00E94522C8F2D0E94DB2D482F80914E07815F60E050E055
:204D200020E00E94BD4380914E07FF2019F043E455E002C047E455E060E00E94472CFF2051
:204D400011F063E001C064E00091050101508A2D46EE53E129E00E945221882309F463C218
:204D60008090B50C10924C0769E1562E99249394BB24DD24D39434C2E090AF0C39016E1893
:204D80007108162D110F110F110FFF2099F0FDE0FB1510F18B2D0E94FC57EC0189818370CA
:204DA00090E0019682159305B9F48881837009F032C212C08FE18B1578F08B2D0E94EF573D
:204DC000EC018C818F7341F088818F7090E001968215930509F41FC28D1409F0D1C1C8C1D5
:204DE000E8E06E16710454F480E0612FFF2011F0492D01C0452D20E00E94411A6624809159
:204E0000B40C882309F442C08230B1F52091AF0C2D1590F58D2D90E0821B910988309105EE
:204E20005CF58091560B891539F58091B20C882319F12B2D30E04091550B992787FD90955D
:204E40008827990F881F9927840F911D2817390799F4FF2011F082E101C086E1612F61505B
:204E6000FF2011F04EE601C04AE629E005E5EE240E94BA40D394185F8091AA0C8B1559F4BA
:204E8000D092B50C90924C078D2C05C08D1419F4B092AA0CD82C2091AF0C2D1508F002C1E9
:204EA0008D2D90E0821B9109883091050CF0FAC08091B40C882311F48D1411F0EE2402C096
:204EC00082E0E82EFF2009F443C04A818091530B9091540B0B2C02C0969587950A94E2F7CA
:204EE00080FF02C080E401C080E0E82A82E2612F20E004E6CA2C0E94F6178A83898187FFBA
:204F000007C085E2612F4B8120E00E94631809C087E3612F4B8120E000E0EE24CC240E94D7
:204F2000F61748814595459582E5612F20E00E94E23F88818370833009F470C0823011F49A
:204F40004EE701C04FE786E6612F0E94692C66C0662061F02A81229526952695237086E024
:204F6000612F47EF5FE000E00E94592C4C814F738091820690918306A0918406B0918506CC
:204F80000B2C04C0B695A795979587950A94D2F780FF02C020E401C020E088E1612F0E943F
:204FA000651A85E4612F498123E80DE7CA2C0E94F61789834F81442389F0888184FF06C0FD
:204FC0008AE4612F20E00E94631808C08CE5612F20E000E0EE24CC240E94F6174A81842FDE
:204FE0008F7349F0440F440F4595459580E6612F20E00E94E23F8E81882311F440E201C0C1
:2050000043E58D81882329F0433511F44AE201C044E489E7612F20E00E94082B5091B40C8E
:20502000552309F43FC0513021F08091B20C882359F58091560B891539F52B2D30E040912B
:20504000550B8091B20C992787FD90958827990F881F9927840F911D28173907A9F4FF207E
:2050600011F082E101C086E1612F6150FF2011F04EE601C04AE6513011F40FEF01C005E5EF
:2050800029E0EE240E94BA40D81461F4FF2019F083E14CE602C087E148E6612F27E000E08B
:2050A0000E9478132D2D2F5F312F385F6394B394FF2021F0FDE0FB1528F41CC08FE18B1581
:2050C00068F418C08D81837090E001968215930589F48C81837009F0A2C00CC08D858F73AD
:2050E00049F089858F7090E001968215930511F4299696C08091B40C823009F06EC03091AF
:20510000AF0C321708F069C0822F90E0831B9109883091050CF061C08091560B891509F09D
:205120005CC04B2D50E03091550B8091B20C992787FD90958827990F881F9927830F911D54
:205140004817590709F049C0FF2011F082E101C086E1612F695FFF2011F04EE601C04AE646
:2051600029E005E5EE240E94BA402D2D2E5F35C0B092AA0C90924C078091B40C882311F0C8
:2051800020E001C022E0ED1430F5E8E06E16710414F580E0612FFF2011F0492D01C0452DA3
:2051A0000E94411A8091B40C8230A9F48091560B891589F4FF2011F082E101C086E1612F0A
:2051C0006150FF2011F04EE601C04AE629E005E5EE240E94BA402D2D2F5F93945394D22E42
:2051E000292C3324FF2019F084E090E002C080E190E02D2D30E0821593050CF0BDCDD092F3
:2052000005019924215030408216930664F0DA94D092B50C08C0ED1408F4E2CDEFCD2496EA
:20522000132FD22EECCDDF91CF911F910F91FF90EF90DF90CF90BF90AF909F908F907F908C
:205240006F905F903F902F900895682F81E00E94EC240895682F80E00E94EC2408950F9306
:205260001F93CF93DF930F92CDB7DEB7082F162F442331F08F5F43E229830E94692C29814A
:20528000802F612F47E0222329F027E000E00E94781303C020E00E94ED400F90DF91CF9135
:2052A0001F910F910895BF92CF92DF92EF92FF920F931F93CF93DF9300D0CDB7DEB78091AA
:2052C000D10686FD0BC00E946B3C8436910530F484EB90E06BE475E00E948B140E9444142E
:2052E000B09077060B2D10E0C801B4E095958795BA95E1F793E0C92EC82284E0C80EDD2470
:20530000DA9421E0E22EF12CE022F1220E94533380918B0B880F80938B0BE114F10409F0EA
:2053200048C0B81609F445C0D816D9F18AE595E060E070E048E055E00E94011452E091E0B2
:2053400020918B0B30E020273127092E02C0359527950A94E2F720FD02C0DD2402C0A2E03D
:20536000DA2E963018F0492F4F5F05C0943010F4492F01C04C2D852F68E22D2D5A839983A1
:205380000E94E23F99815A81943019F4DD2011F095E05B5E9F5F983098F20E94BA3CD09010
:2053A0008B0B86B380958E7721F40E94EA2FA895ADCF0F900F90DF91CF911F910F91FF908E
:2053C000EF90DF90CF90BF900895CF93C82F803178F5809111018F3F19F081E080934D075B
:2053E0008C2F8F5F0E949A1580EB93E062ED72E00E942D158F3F910509F030F48C2F0E9472
:20540000CE4381E00E94EF150E94922F809111018F3F31F00E94532910924D070E94B84948
:2054200010926402109263021092620210926102CF910895FC01808141FF02C0682B06C0FC
:2054400042FF03C06095682301C0682760830895EDE7F0E080818F7D8083179AAAE8B0E071
:205460001C9210928B008AE08C93808188618083089587FD59C047FF02C0640F419567FFEA
:2054800002C0460F60E0E62FFF27E7FDF095A42FBB27A7FDB095EA0FFB1FE134F10514F051
:2054A00040E4461B253511F460FF2AEAE62FE595E595E595FF27E7FDF095F695FE2FEE27B6
:2054C000F795E795E80FF11DE15BF84F6770C1F081E090E0062E02C0880F991F0A94E2F727
:2054E00081958223908189278083E058FF4F6850460F06C0808182278083E058FF4F485009
:205500001416C4F3442381F0485F71F0E058F04081E090E002C0880F991F4A95E2F78195B2
:20552000822390818927808308952FEF0E94392A0895DF92EF92FF920F931F93CF93DF93FA
:20554000F42EE02E6034B0F5482F50E0FA01EF0DF11DE138F1051CF0E0E8FE2EF81A062FE0
:2055600006950695069510E01695102F002717950795040F151F015B184F677081E090E05F
:20558000D82E01C0DD0C6A95EAF712C030E0E901D595C79520FF08C0C8016D2D4E2D0E9482
:2055A0001A2A2C2F206801C02C2FFA940F5F1F4FFF2061F7DF91CF911F910F91FF90EF9099
:2055C000DF9008950F93022F2FEF0E94992A0F910895262F26952695269530E03695322F6A
:2055E000222737952795280F311D215B384F8BE02F34380760F4862F877061E070E002C0F2
:20560000660F771F8A95E2F7C9010E941A2A08958F929F92AF92BF92DF92EF92FF920F9331
:205620001F93CF93DF93022F10E020FF07C09091860696FF06C021FD06C0BEC021E001FD74
:2056400003C020E001C021E0A62FA695A695A695B0E0B695BA2FAA27B795A795A80FB11D9D
:20566000A15BB84F02FF2FC084E1489FA001112449535B4F3BE0087010700115110519F087
:2056800032301CF499C0323044F0FA01849131964E5F5F4FE491682F02C0E0E060E0222364
:2056A00011F06095E095CD018F579F4FFBE08F349F0730F46C93ED01C058DF4FE883119630
:2056C0003150D8F679C003FF08C0222311F08FEF01C080E08C9331E001C030E050E0EA0177
:2056E000CC0FDD1FCC0FDD1FC40FD51FC553DB4F67701596862E99244FEF50E0CA01062E93
:2057000002C0880F991F0A94E2F7D82ED09498E0E92EF12CE818F908CA010E2C02C09595F9
:2057200087950A94E2F7782F709585E0E0E0F0E4AF2EB12CA022B12203C0FE012197E491F3
:205740002111E095332311F0813099F19BE0AF34B90770F54E2F50E08A01082C02C0000F50
:20576000111F0A94E2F79C919D21900F9C93662389F0FD01E058FF4F9BE0EF34F90750F461
:205780000E2C02C0559547950A94E2F790819723940F9083A114B10459F011969C91119720
:2057A000222311F0092301C0092B11960C9311971197815008F0C1CFDF91CF911F910F9173
:2057C000FF90EF90DF90BF90AF909F908F900895AF92BF92CF92DF92EF92FF920F931F9309
:2057E000CF93DF93C82F162F7A01D22F802F90E020EAC22ED12CC822D92234E0A32EB12C60
:20580000A822B9222EC080E2C816D10429F0E0E8CE16D10451F403C0F701408108C0F701C5
:2058200080810E946558482F02C0F70144914423D1F0CB37C0F4403260F08C2F612F202FC8
:205840000E94082BA114B10411F4CA5F06C0C55F04C0842F880F840FC80F0894E11CF11CD3
:20586000D150DD2381F6C0934E07DF91CF911F910F91FF90EF90DF90CF90BF90AF900895C1
:205880000F93022F2FEF0E94E82B0F91089520E00E94402C0895982FAB0180E0692F0E946D
:2058A000472C0895AC0180E060E022E00E94402C08950F93FA0194914F5F5F4F929FF0019E
:2058C00011244E0F5F1F0F75292F0E94E82B0F91089520E00E94082B08951F93CF93DF93F2
:2058E0000F92CDB7DEB7182FCA0169830E94BC58482F405D6981882311F022E001C020E0CD
:20590000812F0E94082B0F90DF91CF911F9108958F5F90E0FC01EE0FFF1FE80FF91FEF5E74
:20592000FD4F81E09481992309F480E00895FC0160831282118270E0DB01AA0FBB1FA60F74
:20594000B71FAF5EBD4F14968C911497838314821092AB0C08957093600D60935F0D909362
:205960005E0D80935D0D4F5F40939502E39A80911002882311F40895A89580919502181627
:20598000DCF3089581E192E060E070E040E450E00E94AB2C089583E192E062E070E041E044
:2059A00050E00E94AB2C08956093730B682F70E0E4E0660F771FEA95E1F783E79BE041E01D
:2059C00050E00E94AB2C089590E0BC01660F771F680F791F6C5F7F4FCB018F5E9D4F43E0D9
:2059E00050E00E94AB2C0895CF93DF9300D000D0CDB7DEB7282F30E0F901EE0FFF1FE20F67
:205A0000F31FDE011196EB5EFD4F93E001900D929150E1F7462F50E0F901EE0FFF1FE20F52
:205A2000F31F9A01220F331FD901A40FB51FEB5EFD4FAB5EBD4F93E00D9001929150E1F7CF
:205A4000F901E40FF51FEB5EFD4FDE01119693E00D9001929150E1F791E0909310026C8339
:205A60000E94E42C6C81862F0E94E42C109210020F900F900F900F90DF91CF910895909162
:205A80008202982B90938202F8948091860690918706789490938102809380020895AF921C
:205AA000BF92CF92DF92EF92FF920F931F93CF93DF93F82EE62EC42E122F862F61E675E0CB
:205AC0000E944B2CD090A90CC0E0D0E0A12EBB244C2F405DDC1611F4002359F4C5010C2E1B
:205AE00002C0959587950A94E2F780FF04C020E003C023E001C022E08F2D6E2D0E94082B2F
:205B000086E0F80E2196C530D10511F7002381F020E2C21669F41092B30C81E090E002C0D0
:205B2000880F991FDA94E2F7182782E00E943F2D812FDF91CF911F910F91FF90EF90DF90D3
:205B4000CF90BF90AF9008950F931F93CF93DF930F92CDB7DEB78A0169830E940458FC0167
:205B6000698170E0DC01A60FB71FC80195958795959587958C93660F771F83E090E0062EFD
:205B800002C0880F991F0A94E2F780959481892398012370307002C0220F331F6A95E2F7BE
:205BA000820F848382E00E943F2D0F90DF91CF911F910F9108951F93CF93DF93182F882309
:205BC00011F0CDE001C0CFE1D0E08C2F112331F00E94FC57FC018081837005C00E94EF5753
:205BE000FC0184818F738111DF5FC150C7FFEDCF8D2FDF91CF911F910895CF93C82F0E946A
:205C0000DB2D482F50E0CC2319F02EE030E002C020E230E0421753076CF0CC2319F087EC71
:205C20009EE002C085ED9EE090937F0280937E0281E001C080E0CF9108952F923F924F920B
:205C40005F927F928F929F92AF92BF92CF92DF92EF92FF920F931F93CF93DF93782E80919B
:205C6000C10385FF04C0412C75E0572E03C0412C64E0562E772039F081E003E11DE0781649
:205C800021F480E103C00BEC1CE088E0C091C003C595C595C595C595CC0FC80F9091C2035C
:205CA00084E6980240011124E8E5F2E08E0E9F1E88EC9FEA881999096C01EE24FF2460919F
:205CC0007406772767FD7095872F972F28EE33E040E050E00E94C564DC01CB01C80ED91E0D
:205CE000EA1EFB1EF1E07F1619F4DC2FD85036C0D0E034C05101ED2FF0E0EE0FFF1FE15DAC
:205D0000FC4F808191818215930534F08415950514F45C0101C052018D2F0E940C57FC0168
:205D20002281332727FD309524523A4F220F331F2A0D3B1DC901AA2797FDA095BA2FC81A3D
:205D4000D90AEA0AFB0AF8019182808228193909338322830C5F1F4FDF5F04C02224332403
:205D600024183508DC1730F2F80191828082C601D382C282772039F48BEC9CE0909310013C
:205D800080930F0106C0885E934090935C0D80935B0DF80115821482DF91CF911F910F9114
:205DA000FF90EF90DF90CF90BF90AF909F908F907F905F904F903F902F9008959091B70C3F
:205DC00082B72091B70C9217C9F7392F20E090E0822B932B08958091C003877090914D078D
:205DE000911184E090911101981709F463C0809311011EBC1DBC1CBC97B7937C97BF909117
:205E00007D009E7F90937D009CE396BF9FE390937C00813019F0823081F51CC080E49CE9AC
:205E20009BBD8ABD87B7806187BF1FBC8AE08EBD81E00E941D2E80E593EC909387008093DF
:205E4000860088E893E190938500809384000E94282A30C082E00E941D2E80E593EC90935F
:205E600087008093860088E893E190938500809384000E94282AC0981DC080917D00857E25
:205E800080937D0017981F9A10928A0010928B0082E880938A0080917D00806280937D00AA
:205EA00080EE9BEA9BBD8ABD87B7806187BF1FBC8AE08EBD8091C103829581708093CA0C95
:205EC0000E94DE2E20917406332727FD3095E3E0220F331FEA95E1F7285B3E4F280F391F6A
:205EE000309389062093880680E00E941D2E089590E0FC01E156FD4F1082DC01AA0FBB1F33
:205F0000FD01E756FD4FA80FB91FA055BC4F1B962D913C911C973183208383569D4FFC0163
:205F20001082089580910601882311F01092060180E00E94782F81E00E94782FEBE5FBE0C7
:205F40002CE084E690E8819391932150E1F71092A10210921A030895E4E7FBE040E0842FB8
:205F6000806487B9369A3699FECF24B135B1369A3699FECF84B195B1820F931F8193919374
:205F80004F5F483061F70895E82FF0E0EC51F14FE491F0E0EE0FFF1FEC58F44F8081918188
:205FA00008950E94C42F9C018091D40680FF03C0309521953F4FC90108959091D6068AEFFF
:205FC000989FC0011124880F991F90938F0B80938E0B0895FF920F931F93CF93DF93809175
:205FE00086069091840B9817D1F18093840BC0E0D0E0FF248F2D0E94C42F092F069510E0CB
:20600000C00FD11FF39484E0F816A1F78091850B9091860BC817D90771F0D093860BC09376
:20602000850B10928D0B10928C0B8091BF0681FF02C00E94DD2F8091BF06843069F08091A3
:206040008E0B90918F0B009739F420916402822F82958F7080FF02C0C79A01C0C798DF9118
:20606000CF911F910F91FF900895982F93589B3F88F0E82FF0E0EE0FFF1FE458FA4F8081B8
:206080009181861797070CF4CB01481759072CF4CA010895992787FD90950895362F379569
:2060A0003327379520E030935A0B2093590B1092580B1092570B0E948C5908952F923F92BC
:2060C0004F925F926F927F928F929F92BF92CF92DF92EF92FF920F931F93CF93DF93CDB7A9
:2060E000DEB72A970FB6F894DEBF0FBECDBF9A878987DE011196FC0188E001900D928150E6
:20610000E1F71092540B1092530B88249924BB24BA9484E6282E312C412C512C612C94E008
:20612000792E7401EE0CFF1CEE0CFF1C84E395E0E80EF91EF7018081982F937009F4B3C0FD
:206140002181422F437050E06B2D772767FD70954617570709F49FC0269526952F7130E06D
:206160000090AF0302C0359527950A94E2F720FD92C08595859561E00E944E30882309F472
:206180008AC0F701D180F3E0DF22ED2DF0E0EE0FFF1F81E090E08C0F9D1FE80FF91F0081DB
:2061A0001181F7018081837017FF03C080FD03C072C081FF70C081E090E0082C02C0880F08
:2061C000991F0A94E2F72091530B3091540B822B932B9093540B8093530BBD2CF70163813E
:2061E000662389F1818187FF05C0C8010E9453548C0129C0862F6CE97FEF44E650E00E9453
:206200003530BC010097F9F0C12ECC1CCC24CC1C19F0109501951F4F77FF0CC0709561953E
:206220007F4FC301801B910B0E94FA528301081B190B04C0C8010E94FA528C01CC2019F0DF
:20624000109501951F4FF701828160E070E044E650E00E943530A801662757FD6095762F85
:206260008C01222717FD2095322FCB01BA01A90198010E94C564A20191010E943965ED2DFA
:20628000FF27E7FDF095EE0FFF1F89859A85E80FF91F208331830894811C911C9EE08916BE
:2062A000910409F03ECF2A960FB6F894DEBF0FBECDBFDF91CF911F910F91FF90EF90DF909F
:2062C000CF90BF909F908F907F906F905F904F903F902F9008952F923F925F926F927F9226
:2062E0008F929F92AF92BF92CF92DF92EF92FF920F931F93CF93DF93E82E2FE8A22E26E0AB
:20630000B22E66247724552431E0232E312C862D843070F4E0917902F0E0EE0FFF1FEE0FA1
:20632000FF1FE60DF71DE554FF4FC491C15001C0C62D0E94C42F9C01D5018D919D915D01E5
:20634000281B390BC901AA2797FDA095BA2F0AE0880F991FAA1FBB1F0A95D1F7F501121608
:2063600013061CF4228D338D02C0248535852436310514F424E630E0442737FD4095542FB7
:20638000BC01CD010E9439656901FCEF20303F0734F041E0C41644E0D4062CF407C0C12C56
:2063A0001CEFD12E03C0C12CD4E0DD2E8091D40680FF06C0C23021F4D094C194D108D39434
:2063C0008C2E9924F401EE0FFF1FEF5DFC4FD182C082C601D7FE04C0882799278C199D09F0
:2063E000A4E096958795AA95E1F78230A8F4882341F4C101082C02C0880F991F0A94E2F70F
:206400000AC09101082C02C0220F331F0A94E2F78091C70B8223582AC43008F066C0EE2006
:2064200009F056C02091630230916402CF5E8C2F90E04097D90102C0B695A7958A95E2F7C6
:20644000CD01822B932B80FF43C0E401CC0FDD1FC853D94FF8808F2D807CD1F18F2D8F73D2
:2064600090E0DC01AA0FBB1FA854B34FFC01EE0FFF1FE054F94F6D917C91119780819181E4
:20648000681B790B882777FD8095982F2981332727FD3095432F532F0E94C56422E330E035
:2064A00040E050E00E94396589019A01F294F694F694E3E0FE228F2D90E08130910521F026
:2064C0008230910529F403C0C00ED11E01C06801C401880F991FFC01E154F44FD182C0828F
:2064E000875A9D4FFC01D182C0820894611C711CF7E06F16710409F00ACF89E592E00E9472
:206500005E30D091AF0301E512E0C0E0612C34E0732E812C48E0942EA12CB12C8D2F6C2F88
:206520000E945C58C23071F52091C00323FF2AC02091D40620FF03C0909581959F4F6C012A
:20654000EE24D7FCE094FE2C8DE790E0A0E0B0E0C80ED91EEA1EFB1E80915D0290915E02E5
:206560009301281B390B442737FD4095542FC701B6010E94C564A50194010E943965822F93
:20658000932F06C020914F0B222311F080E090E0880F991FD8018D939D938D01CF5FC4302A
:2065A00009F0BCCF852DDF91CF911F910F91FF90EF90DF90CF90BF90AF909F908F907F90BE
:2065C0006F905F903F902F900895CF92DF92EF92FF920F931F93CF93DF93CDB7DEB72897BE
:2065E0000FB6F894DEBF0FBECDBF6C018091AA0C0E94FC577C018E010F5F1F4F88E0D80102
:206600001D928A95E9F7D7011196EC91E370F0E0EE0FFF1FE00FF11FD182C082C8010E9493
:206620005E30D7011196EC911197E370F0E0EE0FFF1FE00FF11F8081918128960FB6F894C9
:20664000DEBF0FBECDBFDF91CF911F910F91FF90EF90DF90CF900895FF920F931F93CF9364
:20666000DF93C1E0D0E00DE010E0FC2EC09FF001C19FF00DD09FF00D1124ED5CF94F85816B
:20668000882329F060E00E944E30882329F42196C530D10551F7FF248F2DDF91CF911F91E5
:2066A0000F91FF900895BF92CF92DF92EF92FF920F931F93CF93DF9300D0CDB7DEB705E0E3
:2066C00010E059E0BB24E1E0EE2EF12C543050F4C8010396970102C0220F331F8A95E2F7B9
:2066E000C9011DC0573090F480918B0B90E088719070980173E0220F331F7A95E1F741E061
:206700008217930709F040E0DD2410C0C8010296F70102C0EE0FFF1F8A95E2F7CF01D82E58
:2067200080918B0B8D2141E009F440E0C52E852F49835A830E948C5949815A814817F1F00A
:20674000593021F4882331F4CB2C04C0882311F4C52EC19420918B0BDD2021F0D226D09269
:206760008B0B0BC0C80163E0880F991F6A95E1F7922F977E982B90938B0BBC2C515001505A
:206780001040552309F0A2CFF894809186069091870678942091870B3091880B821B930B12
:2067A0008B30910508F0BB24F894809186069091870678949093880B8093870B8B2D0F901C
:2067C0000F90DF91CF911F910F91FF90EF90DF90CF90BF9008952F923F924F925F926F92CD
:2067E0007F928F929F92AF92BF92CF92DF92EF92FF920F931F93CF93DF9300D0CDB7DEB7AF
:20680000E82EF090D0064FE0B42EBF208091890B90918A0B009709F099C080E8E816C9F1B8
:206820008E1580F0E5E2EE1540F0F4E2EF1650F582E2E81608F48AC047C0E1E6EE1609F0B8
:2068400085C067C0F3E8EF1609F455C0FE1548F081E8E81609F475C0E2E8EE1609F076C0F9
:2068600050C0F5E8EF1651F1EF1610F18FEBE81609F06CC081E00E94573D83E00E94573D11
:2068800082E013C0E2E0EB1508F460C080E18F252CC0E0917D02F0E0EE0FFF1FE052F94F8F
:2068A000808191810E94653D80E80E94573D4EC082E19BE40E94653D84E8F7CF82EB9FE091
:2068C0000E94653D85E8F1CFF3E2EF1631F483E0B81641F08B2D8F5F08C0BB2029F08B2DCC
:2068E000815003C080E001C083E08093D00681E00E943F2D28C08DE297E10E94473D83E8C8
:2069000005C08BE197E30E94473D82E80E94573D7DC280919F02823021F483E080939F0237
:2069200012C080917702882319F0109277020BC0E3E0FE1611F481E001C080E00E94782FBA
